:100000000C94E2000C940A010C940A010C940A016D
:100010000C940A010C940A010C940A010C940A0134
:100020000C940A010C940A010C940A010C940A0124
:100030000C940A010C940A010C940A010C940A0114
:100040000C94AE040C940A010C941E050C94F80454
:100050000C940A010C940A010C940A010C940A01F4
:100060000C9450050C940A010000000024002700A5
:100070002A0048656C6C6F20576F726C6421000A0F
:100080000A0A00696620286B20213D203132333472
:10009000353629207B20756E6C6F636B28293B20D9
:1000A0007D20656C7365207B206C6F636B28293B1A
:1000B000207D00666F72202869203D20303B20693A
:1000C000203C203132333435363B20692B2B29201C
:1000D0006B2B2B3B00696E742069203D20302C2057
:1000E0006B203D20303B00466C6167206973204CDB
:1000F0006F636B65642120506C6561736520686572
:100100006C70206D6520746F206A61696C62726525
:10011000616B2069742E00556E6C6F636B65642E85
:10012000204865726520697320796F757220666C4E
:10013000616720737461726C6162737B766F6C743B
:100140006167655F676C69746368696E675F69732F
:100150005F636F6F6C7D00546869732073686F759F
:100160006C64206E6F742068617070656E21206B06
:100170003D0000000000250028002B0004040404BA
:100180000404040402020202020203030303030341
:10019000020203010204081020408001020408103A
:1001A00020010204081020408040000000090003E4
:1001B000020000040508000000000000000000002C
:1001C00000006A0611241FBECFEFD8E0DEBFCDBF0E
:1001D00027E0A8EAB2E001C01D92AD3DB207E1F709
:1001E00012E0A0E0B1E0EEEDF9E102C005900D9261
:1001F000A83AB107D9F710E0C2EED0E004C02197C9
:10020000FE010E94C50AC13ED107C9F70E94A3069C
:100210000C94ED0C0C94000090E0FC01E655FE4FB0
:100220002491FC01ED56FE4F3491FC01E458FE4F41
:10023000E491EE23C9F0222339F0243001F1A8F42F
:10024000223069F1233079F1F0E0EE0FFF1FEE5814
:10025000FE4FA591B4918FB7F894EC91611126C02F
:1002600030953E233C938FBF0895283071F029309C
:1002700091F0253049F7809180008F7D03C08091F7
:1002800080008F7780938000DFCF8091B0008F77E0
:100290008093B000D9CF8091B0008F7DF9CF84B525
:1002A0008F7784BDD1CF84B58F7DFBCF3E2BDACF46
:1002B0003FB7F89480912C0790912D07A0912E07BD
:1002C000B0912F0726B5A89B05C02F3F19F00196C6
:1002D000A11DB11D3FBFBA2FA92F982F8827BC01A0
:1002E000CD01620F711D811D911D43E0660F771FC7
:1002F000881F991F4A95D1F70895E0912507F0913D
:100300002607309719F01092200709940895CF938B
:10031000DF93AC01E0912307F09124073097F1F0CF
:1003200090912207809121079817C0F090E0292F23
:1003300030E02617370754F4D901A45FBC4F240FCF
:10034000351FE90128812C939F5FF1CF109222077E
:1003500060932107CB01DF91CF910994DF91CF9179
:100360000895AF92BF92CF92DF92EF92FF920F93D8
:100370001F93CF93DF936C017B018B01040F151F3B
:10038000EB015E01AE18BF08C017D10759F06991A3
:10039000D601ED91FC910190F081E02DC601099507
:1003A000892B79F7C501DF91CF911F910F91FF90B4
:1003B000EF90DF90CF90BF90AF900895FC01538DE8
:1003C000448D252F30E0842F90E0821B930B54172F
:1003D00010F0CF96089501970895FC01918D828DBC
:1003E000981761F0A28DAE0FBF2FB11D5D968C9155
:1003F000928D9F5F9F73928F90E008958FEF9FEF94
:100400000895FC01918D828D981731F0828DE80F4F
:10041000F11D858D90E008958FEF9FEF0895FC0109
:10042000918D228D892F90E0805C9F4F821B9109D6
:100430008F739927089580E397E00E940F0221E0CF
:10044000892B09F420E0822F089580E090E0892B29
:1004500029F00E941B0281110C9400000895FC01F8
:10046000A48DA80FB92FB11DA35ABF4F2C91848D15
:1004700090E001968F739927848FA689B7892C9372
:10048000A089B1898C91837080648C93938D848DC5
:10049000981306C00288F389E02D80818F7D8083C8
:1004A0000895EF92FF920F931F93CF93DF93EC0188
:1004B00081E0888F9B8D8C8D98131AC0E889F9890B
:1004C000808185FF15C09FB7F894EE89FF8960830E
:1004D000E889F98980818370806480839FBF81E08F
:1004E00090E0DF91CF911F910F91FF90EF900895D1
:1004F000F62E0B8D10E00F5F1F4F0F731127E02EAC
:100500008C8D8E110CC00FB607FCFACFE889F989E3
:10051000808185FFF5CFCE010E942F02F1CFEB8DB8
:10052000EC0FFD2FF11DE35AFF4FF0829FB7F894B7
:100530000B8FEA89FB8980818062CFCF0F931F9355
:10054000CF93DF938C01D0E0C0E0F801EC0FFD1FEA
:100550006491662341F080E397E00E945102892B69
:1005600011F02196F2CFCE01DF91CF911F910F9123
:100570000895CF93DF93EC01888D8823B9F0AA8981
:10058000BB89E889F9898C9185FD03C0808186FD4E
:100590000DC00FB607FCF7CF8C9185FFF2CF80819D
:1005A00085FFEDCFCE010E942F02E9CFDF91CF91E1
:1005B000089520911205260F3327331F2130314033
:1005C000ECF420911606FC0190E080E0243069F004
:1005D00082E00895A09112052191AC014E5E5B4F1F
:1005E000A40FB52FB11D2C930196861798F3809117
:1005F0001205680F6093120580E0089581E0089568
:100600001092160681E0809318061092170661E09A
:1006100082E10E940C0161E083E10E940C01E9EBA0
:10062000F0E080818E7F808380818D7F808380E277
:100630008093B80085E48093BC0008950895E0910C
:10064000220780912107E81730F4F0E0E45FFC4FC7
:10065000808190E008958FEF9FEF08959091220799
:10066000809121072FEF3FEF981748F4E92FF0E032
:10067000E45FFC4F208130E09F5F90932207C90127
:1006800008958091210790912207891B990B089565
:10069000CF93DF93CB01EA01642F0E94D902CE01F0
:1006A000DF91CF910895CF93DF931F92CDB7DEB73F
:1006B000698361E0CE0101960E94D90281E090E059
:1006C0000F90DF91CF91089590E080E00895209100
:1006D000210730912207231B330B121613064CF40B
:1006E0001816190634F48DEC97E00E942E038093BF
:1006F00000010895FB0101900020E9F73197AF0157
:10070000461B570BDC01ED91FC910280F381E02D3B
:100710000994CF93DF930E949E02EC016BE271E09B
:1007200080E397E00E947A038C0F9D1FDF91CF91A9
:100730000895CF93DF9385ED8093BC0080910E04E4
:1007400090910F04A0911004B09111040796A11D7F
:10075000B11D23E0B695A795979587952A95D1F772
:100760002091BC0024FD03C01092160636C04091B3
:100770000E0450910F046091100470911104452BE8
:10078000462B472B69F30097A105B10541F025E100
:100790002A95F1F700000197A109B109E1CF8091F5
:1007A0000D0491E090930C048823B9F0C091B80037
:1007B000D091BA008091BC008A7B8093BC0060E03D
:1007C00082E10E940C0160E083E10E940C010E9422
:1007D0000003D093BA00C093B800DF91CF91089581
:1007E000CF92DF92EF92FF92CF93DF938FB7F8947F
:1007F000C0902807D0902907E0902A07F0902B0797
:100800008FBF8091BB0090E09595879580339105CF
:1008100061F46EE271E08DEC97E0DF91CF91FF9093
:10082000EF90DF90CF900C947A03C19709F08FC0BE
:1008300065E170E090E080E00E94F00BEC0150E098
:1008400040E0009739F0188260E771E00E94B60C32
:1008500044E150E084E0F694E794D794C7948A95F5
:10086000D1F79601BA0168537F4F6C157D0548F5A5
:10087000DF92CF9285E891E09F938F931F9288EC4F
:100880008F9388EA92E09F938F930E94BD0C8DB75F
:100890009EB708960FB6F8949EBF0FBE8DBF68EA4C
:1008A00072E08DEC97E00E947A03209709F44FC024
:1008B000CE01DF91CF91FF90EF90DF90CF900C941D
:1008C000670B283C3105C4F4DF92CF928DEE91E0A6
:1008D0009F938F931F9288EC8F9388EA92E09F9367
:1008E0008F930E94BD0CEDB7FEB738960FB6F89403
:1008F000FEBF0FBEEDBFD3CF285C310924173507EB
:1009000020F5209711F12C0F3D1FF9012081422F76
:10091000022E000C550B5F932F93DF92CF9286E44B
:1009200092E09F938F931F9288EC8F9388EA92E0D6
:100930009F938F930E94BD0C8DB79EB70A960FB6FA
:10094000F8949EBF0FBE8DBFAACF20E0E0CFDF910D
:10095000CF91FF90EF90DF90CF9008951F920F926C
:100960000FB60F9211242F933F938F939F93AF93C2
:10097000BF938091280790912907A0912A07B091F1
:100980002B073091270726E0230F2D3768F129E840
:10099000230F0396A11DB11D2093270780932807DD
:1009A00090932907A0932A07B0932B0780912C07D7
:1009B00090912D07A0912E07B0912F070196A11DB0
:1009C000B11D80932C0790932D07A0932E07B09311
:1009D0002F07BF91AF919F918F913F912F910F90D2
:1009E0000FBE0F901F9018950296A11DB11DD4CF78
:1009F0001F920F920FB60F9211242F933F934F9394
:100A00005F936F937F938F939F93AF93BF93EF9376
:100A1000FF9380E397E00E942F02FF91EF91BF9137
:100A2000AF919F918F917F916F915F914F913F9186
:100A30002F910F900FBE0F901F9018951F920F923D
:100A40000FB60F9211242F938F939F93EF93FF93E1
:100A5000E0914007F09141078081E0914607F091D5
:100A6000470782FD1BC09081809149078F5F8F737C
:100A700020914A07821741F0E0914907F0E0E05DDC
:100A8000F84F958F80934907FF91EF919F918F9138
:100A90002F910F900FBE0F901F9018958081F4CF6B
:100AA0001F920F920FB60F9211242F933F934F93E3
:100AB0005F936F937F938F939F93AF93BF93EF93C6
:100AC000FF938091B900887F803609F44AC0F0F521
:100AD000883209F4A4C018F5803109F498C0B8F43C
:100AE000882309F4F4C0883009F491C0FF91EF9194
:100AF000BF91AF919F918F917F916F915F914F9136
:100B00003F912F910F900FBE0F901F901895883135
:100B100009F485C0803251F78093150614C08034E3
:100B200009F49AC040F48033B9F38833F9F680931E
:100B3000150685ECADC0803509F482C0883509F40E
:100B400093C0883499F60E949903D0CF883909F46C
:100B500089C020F5883729F050F4883611F08037A5
:100B600029F683E0809316061092140654C0883844
:100B700009F478C0803919F0803809F0B7CF809136
:100B80001406E091140681E08E0F80931406809184
:100B9000BB00F0E0EC5EFA4F80833DC0803B39F053
:100BA000E0F4803A09F479C0883A09F09FCF84E0F4
:100BB000809316061092130510921205E0911E07FD
:100BC000F0911F0709958091120581110FC081E0F6
:100BD000809312051092120409C0803C09F4A9CF39
:100BE000883C09F4A6CF883B09F080CFE09113053B
:100BF00081E08E0F80931305F0E0EE5EFB4F808165
:100C00008093BB00909113058091120529C08091BB
:100C10001B078093BB0085EC8093BC0067CF90914D
:100C20001A0780911907981758F5E0911A0781E083
:100C30008E0F80931A07F0E0E75EF94F8081E9CFCD
:100C4000E0911A0781E08E0F80931A078091BB0014
:100C5000F0E0E75EF94F808390911A0780911907C1
:100C60009817C8F285E8D8CFE0911A0781E08E0F77
:100C700080931A078091BB00F0E0E75EF94F808314
:100C80008091180681115FCF81E08093170684EA76
:100C90008093BC001092160629CF85EC8093BC008F
:100CA0001092160680911406E0911406F0E0EC5EB6
:100CB000FA4F10826091140670E0E0911C07F091E9
:100CC0001D0784E195E00995109214060FCF10924C
:100CD000150639CFE0E3F7E01382128288EE93E045
:100CE000A0E0B0E084839583A683B7832BE031E056
:100CF0003183208325EC30E03587248724EC30E0F5
:100D00003787268720EC30E0318B208B21EC30E0D8
:100D1000338B228B22EC30E0358B248B26EC30E0B9
:100D2000378B268B118E128E138E148EEDECF7E01E
:100D30001382128284839583A683B7838DE191E029
:100D4000918380830895CF93DF93CDB7DEB7A997C2
:100D50000FB6F894DEBF0FBECDBF789484B5836024
:100D600084BD85B5836085BD80916E008160809370
:100D70006E0092E090938100809181008160809369
:100D80008100809180008160809380008091B1001B
:100D900084608093B1008091B00081608093B00046
:100DA00086E880937A001092C100E0914007F091AC
:100DB00041079083E0913C07F0913D071082E0915C
:100DC0003E07F0913F0787E6808310924807E09145
:100DD0004407F091450786E08083E0914207F09157
:100DE0004307808188698083E0914207F09143073F
:100DF00080818F7D8083EBE9F1E02491E4E8F1E0EC
:100E00008491882399F090E0880F991FFC01E8599C
:100E1000FF4FA591B491FC01EE58FE4F859194913E
:100E20008FB7F894EC91E22BEC938FBF61E088E0F0
:100E30000E940C01109222071092210710922007A5
:100E40000E9400038DE791E090931F0780931E0797
:100E500087E891E090931D0780931C0780E68093BC
:100E6000BA0082E08093BD0087E693E09093240768
:100E70008093230780EF93E09093260780932507C4
:100E800082E790E00E94890300E010E01EA21FA20A
:100E900018A619A61AA21BA21CA21DA28AA19BA178
:100EA000ACA1BDA18034924EA140B105B8F48EA191
:100EB0009FA1A8A5B9A50196A11DB11D8EA39FA3B1
:100EC000A8A7B9A78AA19BA1ACA1BDA10196A11D0C
:100ED000B11D8AA39BA3ACA3BDA3E0CF8EA19FA10C
:100EE000A8A5B9A58034924EA140B10509F456C019
:100EF00087E591E00E949E022EA13FA148A559A539
:100F000019A28E010F5D1F4F9AE0C92ED12CE12C42
:100F1000F12CCA01B901A70196010E94A30A605DE4
:100F2000F80162938F01211531054105510589F7BB
:100F3000309729F0BF0180E397E00E947A036BE2CB
:100F400071E080E397E00E947A030E9458014B0110
:100F50005C0188ECC82ED12CE12CF12C0E945801A8
:100F6000681979098A099B09683E734081059105D2
:100F7000A8F3F1E0CF1AD108E108F10828EE820EBB
:100F800023E0921EA11CB11CC114D104E104F104A0
:100F900029F787E191E00E948903D7CF87EE90E09F
:100FA0000E94890385ED90E00E94890383EB90E025
:100FB0000E94890383E890E00E9489038FE790E014
:100FC0000E9489030115110509F460CF0E941B02DC
:100FD000882309F45BCF0E94000058CFABE0B0E05B
:100FE000E4EFF7E00C946C0A7C013B018A01FC0100
:100FF00017821682838181FFC8C1CE0101965C01F0
:10100000F7019381F30193FD859193FF81913F0156
:10101000882309F453C1853239F493FD859193FFF8
:1010200081913F01853229F4B70190E00E94DE09E9
:10103000E7CF912C212C312CFFE1F31538F08B32C6
:1010400011F190F4803209F1833229F137FC3CC070
:1010500020ED280F2A3050F536FE20C08AE0989EF9
:10106000200D1124922E06C08D3291F0803371F73D
:10107000689430F8F30193FD859193FF81913F01CE
:101080008111DACF21C0689431F8689432F8F2CF38
:10109000689433F8EFCF689434F8ECCFEAE02E9EF2
:1010A000200D1124222E689435F8E4CF8E3229F4D5
:1010B00036FC04C1689436F8DDCF8C3619F4689498
:1010C00037F8D8CF8836B1F2982F9F7D955493305A
:1010D000E0F08336A1F18337C1F1833509F063C0B5
:1010E0002801F2E04F0E511CF801C080D180692D1B
:1010F00070E036FC02C06FEF7FEFC6010E94C809A6
:101100004C01689437F882010AC00C5F1F4FFFE35F
:10111000F98388248394912C6501E89437F833FE91
:101120002DC0522C8114910471F5552009F468CF1B
:10113000B70180E290E00E94DE095A94F6CFF801F0
:10114000808189830E5F1F4FE4CF2801F2E04F0EAC
:10115000511CF801C080D180692D70E036FC02C0BE
:101160006FEF7FEFC6010E94D3094C018201D5CFFA
:10117000B70180E290E00E94DE092A942814190445
:1011800009F0B0F7CECFF60137FC859137FE81919B
:101190006F01B70190E00E94DE0951105A94F1E00E
:1011A0008F1A9108BFCF843619F0893609F077C0BD
:1011B000F80137FE6BC060817181828193810C5F81
:1011C0001F4FF32DFF763F2E97FF09C09095809516
:1011D000709561957F4F8F4F9F4F689437F82AE045
:1011E00030E0A5010E940E0AC82ECA188C2C432C90
:1011F00036FE0CC0E89440F8C91440F434FE05C033
:1012000032FC03C0F32DFE7E4F2E892C44FE95C088
:10121000FE01EC0DF11D8081803309F087C0242D83
:10122000297E422E842D8870582E43FC95C040FEA6
:101230008FC09C2C821418F42C0C922C981844FE0D
:1012400091C0B70180E390E00E94DE0942FE09C030
:1012500088E790E041FE02C088E590E0B7010E9477
:10126000DE09C91408F48AC0CA94D12C9FEFC91AA8
:10127000D90ACA0CDB1CF60182916F01B70190E01C
:101280000E94DE09AC14BD04B1F74FCF60817181BB
:10129000072E000C880B990B0E5F1F4F92CFD32C9B
:1012A000E894D4F82AE030E0853739F1232D297FFE
:1012B000D22E8F3601F148F48835A9F0F7018681E6
:1012C00097812B96E2E10C94880A803749F08837A1
:1012D000A9F7D4FE02C06894D2F820E130E00DC036
:1012E0006894D4F8F6CF34FE03C0822F8660D82EDF
:1012F00020E132E002C028E030E0F801D7FE0FC064
:1013000060817181828193810C5F1F4FA5010E94D2
:101310000E0AC82ECA183D2CE89437F867CF6081B2
:10132000718190E080E00E5F1F4FF0CF42FC02C061
:10133000839478CF8394839475CF842D867809F431
:1013400071CFF6CFB70180E290E00E94DE0983946E
:101350008214C0F3512C73CF522C5818821408F405
:101360006ECFF8CF842D867809F47BCF8BE241FED7
:1013700080E247FC8DE2B70190E071CFB70180E3D6
:1013800090E00E94DE099A946CCF8FEF9FEF99CF87
:10139000FC010590615070400110D8F78095909540
:1013A0008E0F9F1F0895FC01615070400190011045
:1013B000D8F7809590958E0F9F1F08950F931F93D8
:1013C000CF93DF93182F092FEB018B8181FD09C08B
:1013D0001FEF0FEF812F902FDF91CF911F910F9172
:1013E000089582FF14C02E813F818C819D81281732
:1013F00039073CF4E881F981CF010196998388830C
:1014000010838E819F8101969F838E83E3CFE88531
:10141000F985812F0995892BA1F3DACFFA01AA2743
:10142000283051F1203181F1E8946F936E7F6E5F27
:101430007F4F8F4F9F4FAF4FB1E03ED0B4E03CD0D5
:10144000670F781F891F9A1FA11D680F791F8A1FB8
:10145000911DA11D6A0F711D811D911DA11D20D01F
:1014600009F468943F912AE0269F11243019305DD9
:101470003193DEF6CF010895462F4770405D4193CA
:10148000B3E00FD0C9F7F6CF462F4F70405D4A3317
:1014900018F0495D31FD4052419302D0A9F7EACFDF
:1014A000B4E0A6959795879577956795BA95C9F70E
:1014B00000976105710508959B01AC010A2E069401
:1014C0005795479537952795BA95C9F7620F731FBA
:1014D000841F951FA01D08952F923F924F925F92F7
:1014E0006F927F928F929F92AF92BF92CF92DF9234
:1014F000EF92FF920F931F93CF93DF93CDB7DEB799
:10150000CA1BDB0B0FB6F894DEBF0FBECDBF09942C
:101510002A88398848885F846E847D848C849B8483
:10152000AA84B984C884DF80EE80FD800C811B8191
:10153000AA81B981CE0FD11D0FB6F894DEBF0FBEC0
:10154000CDBFED010895A1E21A2EAA1BBB1BFD0120
:101550000DC0AA1FBB1FEE1FFF1FA217B307E40792
:10156000F50720F0A21BB30BE40BF50B661F771FEA
:10157000881F991F1A9469F76095709580959095CA
:101580009B01AC01BD01CF010895EE0FFF1F059037
:10159000F491E02D09940F931F93CF93DF93823042
:1015A000910510F482E090E0E091DB07F091DC0718
:1015B00030E020E0B0E0A0E0309799F4211531054B
:1015C00009F44AC0281B390B24303105D8F58A812B
:1015D0009B816115710589F1FB0193838283FE0173
:1015E00011C0408151810281138148175907E0F0F1
:1015F0004817590799F4109761F012960C931297B7
:1016000013961C933296CF01DF91CF911F910F91CA
:1016100008950093DB071093DC07F4CF2115310503
:1016200051F04217530738F0A901DB019A01BD01BF
:10163000DF01F801C1CFEF01F9CF9093DC07809370
:10164000DB07CDCFFE01E20FF31F81939193225070
:10165000310939832883D7CF2091D9073091DA0710
:10166000232B41F420910301309104013093DA07D8
:101670002093D907209101013091020121153105F4
:1016800041F42DB73EB74091050150910601241B4E
:10169000350BE091D907F091DA07E217F307A0F4D0
:1016A0002E1B3F0B2817390778F0AC014E5F5F4FB8
:1016B0002417350748F04E0F5F1F5093DA07409309
:1016C000D907819391939FCFF0E0E0E09CCFCF9337
:1016D000DF930097E9F0FC01329713821282A09108
:1016E000DB07B091DC07ED0130E020E01097A1F4BA
:1016F00020813181820F931F2091D9073091DA0721
:101700002817390709F061C0F093DA07E093D90789
:10171000DF91CF910895EA01CE17DF07E8F54A81FE
:101720005B819E0141155105B1F7E901FB83EA8315
:1017300049915991C40FD51FEC17FD0761F48081C1
:1017400091810296840F951FE90199838883828194
:1017500093819B838A83F0E0E0E012968D919C91C7
:1017600013970097B9F52D913C911197CD010296F1
:10177000820F931F2091D9073091DA072817390774
:1017800039F6309751F51092DC071092DB07B093D1
:10179000DA07A093D907BCCFD383C283408151819C
:1017A000840F951FC817D90761F44E5F5F4F88817A
:1017B0009981480F591F518340838A819B8193836C
:1017C00082832115310509F0B0CFF093DC07E09357
:1017D000DB079ECFFD01DC01C0CF13821282D7CF81
:1017E000B0E0A0E0E6EFFBE00C946E0A8C010097FD
:1017F00051F4CB010E94CB0A8C01C801CDB7DEB7F2
:10180000E0E10C948A0AFC01E60FF71F9C012250CC
:101810003109E217F30708F49DC0D901CD91DC919D
:101820001197C617D70798F0C530D10530F3CE0110
:1018300004978617970708F3C61BD70B2297C19307
:10184000D1936D937C93CF010E94670BD6CF5B0140
:10185000AC1ABD0A4C018C0E9D1EA091DB07B09105
:10186000DC07512C412CF12CE12C109731F58091A3
:10187000D9079091DA078815990509F05CC04616DA
:10188000570608F058C0809101019091020100971D
:1018900041F48DB79EB74091050150910601841B1C
:1018A000950BE817F90708F055C0F093DA07E093B5
:1018B000D907F90171836083A0CF8D919C91119715
:1018C00012966C90129713967C901397A815B905F1
:1018D00059F56C0142E0C40ED11CCA14DB0420F19E
:1018E000AC014A195B09DA011296159780F0628201
:1018F000738251834083D9016D937C93E114F10489
:1019000071F0D7011396FC93EE93129776CF22963F
:101910008C0F9D1FF90191838083F301EFCFF0932A
:10192000DC07E093DB0769CF4816590608F42C0161
:101930007D01D3019ACFCB010E94CB0A7C01009795
:1019400049F0AE01B8010E94AD0CC8010E94670BBE
:10195000870153CF10E000E050CFFB01DC0102C053
:1019600001900D9241505040D8F70895FB01DC01E1
:1019700001900D920020E1F70895AEE0B0E0E3ECB5
:10198000FCE00C947A0A0D891E898F89988D26E0D7
:101990002C831A83098397FF02C080E090E80197A7
:1019A0009E838D83AE01455E5F4F698D7A8DCE013A
:1019B00001960E94EE074D815E8157FD0AC02F817E
:1019C0003885421753070CF49A01020F131FF801D0
:0E19D00010822E96E4E00C94960AF894FFCF55
:1019DE00FF0000DD078000000000005102B101DEB3
:1019EE0001B9020F02ED010102000000005303488D
:1019FE000364031E0341032E031F030D0A005765E4
:101A0E006C636F6D6520746F2053544152204C41AE
:101A1E004253204354462E20596F757220666972C8
:101A2E00737420666C616720697320737461726CC5
:101A3E006162737B6932635F666C61675F317D00E3
:101A4E00737461726C6162737B6932635F666C6121
:101A5E00675F337D00546865206561726C79206222
:101A6E0069726420636174636865732074686520AD
:101A7E00776F726D2E2053797374656D2075707447
:101A8E00696D653A2025642E20596F752061726547
:101A9E0020746F6F206C6174652E205265626F6FBB
:101AAE0074207468652061726475696E6F20616E52
:101ABE00642074727920616761696E2E00546865C6
:101ACE00206561726C79206269726420636174634F
:101ADE006865732074686520776F726D2E20537958
:101AEE007374656D20757074696D653A2025642E6A
:101AFE0020596F7520746F6F206561726C792C2080
:101B0E00776169742061206C6974746C65206C6FE8
:101B1E006E6765722100546865206561726C79206C
:101B2E0062697264206361746368657320746865AA
:101B3E0020776F726D2E2053797374656D207570DA
:101B4E0074696D653A2025642E20596F7520617277
:101B5E006520616E206561726C7920626972642CF9
:101B6E00206865726520697320796F757220666CC6
:081B7E0061673A2025630000B5
:00000001FF
